:020000040800F2
:1000000000000220813D0008890900088B090008D2
:100010008D0900088F090008910900080000000000
:10002000000000000000000000000000E12F0008B8
:10003000930900080000000081300008E530000846
:10004000D13D0008D13D0008D13D0008D13D000858
:10005000D13D0008D13D0008D13D0008D13D000848
:10006000D13D0008D13D0008D13D0008D13D000838
:10007000D13D0008D13D0008D13D0008D13D000828
:10008000D13D0008D13D0008D13D0008D13D000818
:10009000D13D0008D13D0008D13D0008D13D000808
:1000A000D13D0008D13D0008D13D0008D13D0008F8
:1000B000D13D0008D13D0008D13D0008D13D0008E8
:1000C000D13D0008D13D0008D13D0008D13D0008D8
:1000D000D13D0008D13D0008D13D0008D13D0008C8
:1000E000D13D0008D13D0008D13D0008D13D0008B8
:1000F000D13D0008D13D0008D13D0008D13D0008A8
:10010000D13D0008D13D0008D13D0008D13D000897
:10011000D13D0008D13D000895090008D13D0008F7
:10012000A5090008D13D0008D13D0008D13D0008D7
:10013000D13D00080000000000000000D13D000893
:10014000D13D0008D13D0008D13D0008D13D000857
:10015000D13D0008D13D0008D13D0008D13D000847
:10016000D13D0008D13D0008D13D0008D13D000837
:10017000D13D0008D13D0008000000000000000053
:08018000D13D0008D13D00084B
:1001900010B5054C237833B9044B13B10448AFF3C1
:1001A00000800123237010BD10000020000000001B
:1001B0002C3E000808B5034B1BB103490348AFF3BD
:1001C000008008BD00000000140000202C3E000844
:1001D00053B94AB9002908BF00281CBF4FF0FF31AE
:1001E0004FF0FF3000F074B9ADF1080C6DE904CEAA
:1001F00000F006F8DDF804E0DDE9022304B0704702
:100200002DE9F047089D04468E46002B4DD18A42C9
:10021000944669D9B2FA82F252B101FA02F3C2F1FC
:10022000200120FA01F10CFA02FC41EA030E94408D
:100230004FEA1C48210CBEFBF8F61FFA8CF708FBAE
:1002400016E341EA034306FB07F199420AD91CEB86
:10025000030306F1FF3080F01F81994240F21C81B8
:10026000023E63445B1AA4B2B3FBF8F008FB103300
:1002700044EA034400FB07F7A7420AD91CEB040435
:1002800000F1FF3380F00A81A74240F20781644405
:10029000023840EA0640E41B00261DB1D44000238A
:1002A000C5E900433146BDE8F0878B4209D9002DEE
:1002B00000F0EF800026C5E9000130463146BDE878
:1002C000F087B3FA83F6002E4AD18B4202D38242E2
:1002D00000F2F980841A61EB030301209E46002D91
:1002E000E0D0C5E9004EDDE702B9FFDEB2FA82F2E6
:1002F000002A40F09280A1EB0C014FEA1C471FFA44
:100300008CFE0126200CB1FBF7F307FB131140EA2A
:1003100001410EFB03F0884208D91CEB010103F1F7
:10032000FF3802D2884200F2CB804346091AA4B2B9
:10033000B1FBF7F007FB101144EA01440EFB00FE8D
:10034000A64508D91CEB040400F1FF3102D2A645F2
:1003500000F2BB800846A4EB0E0440EA03409CE791
:10036000C6F12007B34022FA07FC4CEA030C20FA3E
:1003700007F401FA06F31C43F9404FEA1C4900FA5E
:1003800006F3B1FBF9F8200C1FFA8CFE09FB1811DB
:1003900040EA014108FB0EF0884202FA06F20BD94E
:1003A0001CEB010108F1FF3A80F08880884240F29E
:1003B0008580A8F102086144091AA4B2B1FBF9F0E2
:1003C00009FB101144EA014100FB0EFE8E4508D9DD
:1003D0001CEB010100F1FF346CD28E456AD9023862
:1003E000614440EA0840A0FB0294A1EB0E01A14247
:1003F000C846A64656D353D05DB1B3EB080261EBB5
:100400000E0101FA07F722FA06F3F1401F43C5E98E
:10041000007100263146BDE8F087C2F12003D840C4
:100420000CFA02FC21FA03F3914001434FEA1C4706
:100430001FFA8CFEB3FBF7F007FB10360B0C43EAF8
:10044000064300FB0EF69E4204FA02F408D91CEBA8
:10045000030300F1FF382FD29E422DD902386344A6
:100460009B1B89B2B3FBF7F607FB163341EA034146
:1004700006FB0EF38B4208D91CEB010106F1FF3895
:1004800016D28B4214D9023E6144C91A46EA00468C
:1004900038E72E46284605E70646E3E61846F8E61E
:1004A0004B45A9D2B9EB020864EB0C0E0138A3E767
:1004B0004646EAE7204694E74046D1E7D0467BE748
:1004C000023B614432E7304609E76444023842E7C0
:1004D000704700BF30B58BB0002405940694079494
:1004E000089409940094264B1A6B42F080021A6318
:1004F0001A6B02F080020092009A01941A6B42F08B
:1005000004021A631A6B02F004020192019A029427
:100510001A6B42F001021A631A6B02F00102029296
:10052000029A03941A6B42F002021A631A6B02F0E9
:1005300002020392039A04941A6B42F008021A63AF
:100540001B6B03F008030493049B0E4D01220F2143
:10055000284601F08DF80F23059301230693079495
:10056000089405A9284600F091FF4FF44C730593B9
:100570000694079405A9284600F088FF0BB030BD0B
:10058000003802400008024000B583B0002201920A
:10059000094B196B41F4800119631B6B03F4800351
:1005A0000193019B0521382001F042FA382001F027
:1005B00077FA03B05DF804FB0038024000B587B05D
:1005C000124B134AC3F88020DA6702F0E3F9049073
:1005D000104C0121204601F051F80221204601F083
:1005E0004DF864230293012301930DF11702009249
:1005F0000A223C21064803F051FA074B18704FF4C9
:10060000FA7104A802F0D4FAE2E700BF94020020D5
:10061000D8000020000802401C03002008B5026832
:10062000034B9A4200D008BD01F062FAFBE700BF1D
:100630000010004072B6FEE708B50A480A4B036096
:100640004FF4E133436000238360C36003610C22F5
:1006500042618361C36101F0E5FE00B908BDFFF7A7
:10066000E9FF00BFC80100200010014000B585B0BF
:10067000002300930193029303931348134A0260EB
:10068000436083600361037680F82030C362104AC0
:100690008262C3600122C26180F83030426102F0A0
:1006A00071FE68B906230093012301930723029387
:1006B0006946054802F092FE20B905B05DF804FBDA
:1006C000FFF7B8FFFFF7B6FF300000200020014021
:1006D0000100000F08B50A480A4B03600A4B43604B
:1006E00000238360C3604FF48042026143618361F1
:1006F000C361036203F0F4F800B908BDFFF79AFF85
:10070000D800002000540040A086010008B50A4827
:100710000A4B03600A4B436000238360C3604FF4BD
:100720008042026143618361C361036203F0D8F8D0
:1007300000B908BDFFF77EFF2C01002000580040E3
:10074000A086010000B58FB000230A930B930C9391
:100750000D930893099301930293039304930593D4
:10076000069307932C482D4A02604FF42072426092
:1007700083604FF4FA62C2600361836101F0F8FBA9
:10078000002839D14FF480530A930AA9224801F076
:10079000FAFC002832D1204801F016FC00282FD1A5
:1007A00000230893099308A91B4801F06BFD48BB7F
:1007B00060230193002202920392059201A9164838
:1007C00001F066FC00BB04220DEB0201124801F0AF
:1007D0005FFCD8B9082201A90F4801F059FCB8B94B
:1007E0000C2201A90C4801F053FC98B90A4800F00A
:1007F000D1F90FB05DF804FBFFF71CFFFFF71AFFFC
:10080000FFF718FFFFF716FFFFF714FFFFF712FFC0
:10081000FFF710FFFFF70EFF80010020000C0040E3
:1008200008B50A480A4B03604FF4E13343600023E4
:100830008360C36003610C2242618361C36101F084
:10084000F1FD00B908BDFFF7F5FE00BF5002002022
:100850000050004008B50A480A4B03604FF4E133EA
:10086000436000238360C36003610C2242618361A3
:10087000C36101F0D7FD00B908BDFFF7DBFE00BF83
:100880000C0200200048004000B595B03022002145
:1008900008A803F0C3FA0023039304930593069377
:1008A00007930193204A116C41F080511164126C3E
:1008B00002F080520192019A02931C4B1A6842F492
:1008C00080421A601B6803F480430293029B012359
:1008D00008934FF48033099302220E924FF4800361
:1008E0000F9304231093802111911292139308A85F
:1008F00000F072FA98B90F230393022304930023A4
:1009000005934FF4A05306934FF4805307930421AB
:1009100003A800F0C7FC20B915B05DF804FBFFF791
:1009200089FEFFF787FE00BF0038024000700040DC
:1009300000B583B001F0C2F8FFF7A6FFFFF7CAFDCC
:10094000FFF77AFEFFF720FEFFF790FEFFF7C2FEEB
:10095000FFF7DCFEFFF7F6FEFFF762FFFFF77AFF17
:10096000064B01930123009300234FF48072044946
:10097000044801F098FF01F0CBFFFEE72C000020B7
:10098000443E0008BD050008FEE7FEE7FEE7FEE77F
:10099000FEE7704708B5024801F0C9F908BD00BF7D
:1009A0002003002008B5024800F042FF08BD00BF48
:1009B0007800002000B583B0002200920D4B596CE6
:1009C00041F480415964596C01F4804100910099CF
:1009D0000192196C41F0805119641B6C03F0805333
:1009E0000193019B0F216FF0010001F021F803B08A
:1009F0005DF804FB0038024030B589B00023039352
:100A00000493059306930793026803F1804303F56B
:100A100090339A4201D009B030BD044600250195BB
:100A200003F58C335A6C42F480725A645A6C02F4A7
:100A300080720192019A02951A6B42F001021A63C8
:100A40001B6B03F001030293029B402303930323D8
:100A5000049303A9104800F019FD1048104B0360DF
:100A600045608560C5604FF4806303614FF40063A7
:100A700043614FF4005383614FF48073C361056297
:100A8000456200F06FFE18B9044BA3639C63C2E794
:100A9000FFF7D0FDF8E700BF00000240780000201B
:100AA0001064024030B58BB0002305930693079382
:100AB000089309930368274A934204D0264A934235
:100AC00024D00BB030BD00250195244C236B43F09E
:100AD00002032363236B03F002030193019BC023F2
:100AE000059312230693032308930423099305A96E
:100AF0001B4800F0CBFC0295236C43F400132364E5
:100B0000236C03F400130293029BDAE7002503959C
:100B1000124C236B43F002032363236B03F00203A5
:100B20000393039B4FF4406305931223069303231F
:100B300008930423099305A9094800F0A7FC04952C
:100B4000236C43F480032364236C03F48003049335
:100B5000049BB6E7005400400058004000380240B3
:100B6000000402400268094B9A4200D0704782B0EC
:100B700000230193064B1A6C42F008021A641B6CA6
:100B800003F008030193019B02B07047000C004082
:100B90000038024000B587B000230193029303930D
:100BA0000493059302680E4B9A4202D007B05DF899
:100BB00004FB002300930B4B1A6B42F001021A63F3
:100BC0001B6B03F001030093009B0F23019302238F
:100BD0000293059301A9044800F058FCE6E700BF22
:100BE000000C00400038024000000240F0B58DB01B
:100BF00000230793089309930A930B930368454ACC
:100C0000934207D0444A93423CD0444A93425DD039
:100C10000DB0F0BD00240094414B1A6C42F48012D8
:100C20001A641A6C02F480120092009A01941A6BF2
:100C300042F004021A631A6B02F004020192019A54
:100C400002941A6B42F008021A631B6B03F008034C
:100C50000293029B4FF480530793022708970326C1
:100C60000A9608250B9507A92E4800F00FFC0423CF
:100C70000793089709940A960B9507A92A4800F04C
:100C800005FCC5E700210391254B5A6C42F0100288
:100C90005A645A6C02F010020392039A04911A6B80
:100CA00042F001021A631B6B03F001030493049BDF
:100CB0004FF4C06307930223089303230A93072387
:100CC0000B9307A9194800F0E1FBA1E7002105916A
:100CD000134B1A6C42F480221A641A6C02F48022BC
:100CE0000592059A06911A6B42F004021A631B6B77
:100CF00003F004030693069B4FF44063079302231B
:100D0000089303230A9307230B9307A9054800F0D0
:100D1000BDFB7DE70050004000100140004800404E
:100D20000038024000080240000C0240000002406F
:100D3000034AD2F8883043F47003C2F88830704711
:100D400000ED00E010B588B001460022362000F02A
:100D50006FFE362000F0A4FE00240194144B1A6CA0
:100D600042F010021A641B6C03F010030193019B04
:100D700002A903A800F06CFB00F04AFB43000D48F9
:100D8000A0FB03239B0C013B0B480C4A026040F282
:100D9000E732C26043600461846001F0E9F810B199
:100DA000012008B010BD044800F078FFF9E700BF4B
:100DB0000038024083DE1B43200300200010004067
:100DC000034B0360034B0B6080231360704700BF2D
:100DD0006805002068030020002800F0E08170B55D
:100DE00082B00446036813F0010F3BD09F4B9B6811
:100DF00003F00C03042B2CD09C4B9B6803F00C03DA
:100E0000082B21D06368B3F5803F4FD0B3F5A02FF6
:100E100052D0964B1A6822F480321A601A6822F473
:100E200080221A606368002B50D000F06DFE0546EA
:100E30008E4B1B6813F4003F14D100F065FE401B7D
:100E40006428F5D90320B1E1884B5B6813F4800F67
:100E5000D8D0864B1B6813F4003F03D06368002B87
:100E600000F09F81236813F0020F54D07F4B9B68E2
:100E700013F00C0F3ED07D4B9B6803F00C03082B46
:100E800033D0E368002B68D0794B01221A6000F060
:100E90003BFE0546754B1B6813F0020F54D100F062
:100EA00033FE401B0228F5D903207FE16F4A136807
:100EB00043F480331360B5E76C4B1A6842F4802228
:100EC0001A601A6842F480321A60ABE700F01CFE28
:100ED0000546664B1B6813F4003FC3D000F014FEB8
:100EE000401B6428F5D9032060E1604B5B6813F474
:100EF000800FC6D15D4B1B6813F0020F03D0E3686F
:100F0000012B40F05081594A136823F0F8032169FE
:100F100043EAC1031360236813F0080F42D06369EA
:100F20006BB3534B0122C3F8802E00F0EDFD054654
:100F30004E4B5B6F13F0020F34D100F0E5FD401B08
:100F40000228F5D9032031E1484A136823F0F80359
:100F5000216943EAC1031360DDE7454B00221A60B3
:100F600000F0D2FD0546414B1B6813F0020FD2D0B2
:100F700000F0CAFD401B0228F5D9032016E13C4BC6
:100F80000022C3F8802E00F0BFFD0546374B5B6F93
:100F900013F0020F06D000F0B7FD401B0228F5D970
:100FA000032003E1236813F0040F77D02F4B1B6C51
:100FB00013F0805F33D1002301932C4B1A6C42F065
:100FC00080521A641B6C03F080530193019B01252E
:100FD000284B1B6813F4807F23D0A368012B34D0E7
:100FE000052B38D0214B1A6F22F001021A671A6FB5
:100FF00022F004021A67A368002B3DD000F084FDA4
:1010000006461A4B1B6F13F0020F46D100F07CFD11
:10101000801B41F288339842F3D90320C6E00025B3
:10102000D6E7144A136843F48073136000F06CFD34
:101030000646104B1B6813F4807FCED100F064FD90
:10104000801B0228F5D90320B0E0084A136F43F053
:1010500001031367CFE7054B1A6F42F004021A67CA
:101060001A6F42F001021A67C5E700BF003802405C
:10107000000047420070004000F046FD0646524B1B
:101080001B6F13F0020F08D000F03EFD801B41F2F1
:1010900088339842F3D9032088E0EDB9A369002B87
:1010A00000F08380484A926802F00C02082A51D06E
:1010B000022B17D0454B00221A6600F025FD04468E
:1010C000414B1B6813F0007F42D000F01DFD001B58
:1010D0000228F5D9032069E03B4A136C23F08053C2
:1010E0001364DBE7394B00221A6600F00DFD05465C
:1010F000354B1B6813F0007F06D000F005FD401B48
:101100000228F5D9032051E0E369226A1343626A99
:1011100043EA8213A26A5208013A43EA0243E26AAE
:1011200043EA0263284A5360284B01221A6600F002
:10113000EBFC0446244B1B6813F0007F06D100F043
:10114000E3FC001B0228F5D903202FE000202DE04E
:1011500000202BE0012B2BD01B4B5B6803F480019C
:10116000E269914226D103F03F02216A8A4223D1EB
:10117000616A47F6C0721A40B2EB811F1ED103F4B8
:101180004031A26A5208013AB1EB024F18D103F084
:101190007063E26AB3EB026F14D1002006E0012015
:1011A0007047012002E0012000E0002002B070BD85
:1011B0000120FBE70120F9E70120F7E70120F5E72F
:1011C0000120F3E70120F1E7003802400000474228
:1011D00008B5314B9B6803F00C03042B57D0082B48
:1011E00057D12D4B5A6802F03F025B6813F4800F11
:1011F0002AD0294B5968C1F3881C4FEA4C11B1EB36
:101200000C006EEB0E0E4FEA8E1343EA90638101E1
:10121000091A63EB0E03DB0043EA5173C90011EBBB
:101220000C0C43F10003590200234FEA4C2041EA21
:10123000DC51FEF7CDFF184B5B68C3F3014301336C
:101240005B00B0FBF3F025E0134B5968C1F3881C39
:101250004FEA4C11B1EB0C006EEB0E0E4FEA8E1301
:1012600043EA90638101091A63EB0E03DB0043EA52
:101270005173C90011EB0C0C43F1000399020023D8
:101280004FEA8C2041EA9C51FEF7A2FFD3E70348C6
:1012900000E0034808BD00BF0038024000127A0099
:1012A0000024F400002800F09B8070B50D46044631
:1012B0004F4B1B6803F007038B4208D2CBB24C4A5A
:1012C0001370136803F007038B4240F08B80236890
:1012D00013F0020F17D013F0040F04D0454A93689F
:1012E00043F4E0539360236813F0080F04D0414A9D
:1012F000936843F4604393603E4A936823F0F0039D
:10130000A1680B439360236813F0010F32D0636828
:10131000012B21D09A1E012A25D9364A126812F0D3
:10132000020F61D033498A6822F0030213438B60B5
:1013300000F0EAFB06462F4B9B6803F00C03626843
:10134000B3EB820F16D000F0DFFB801B41F2883335
:101350009842F0D9032042E0264A126812F4003F76
:10136000E0D101203BE0234A126812F0007FD9D17E
:10137000012034E01E4B1B6803F00703AB4207D982
:10138000EAB21B4B1A701B6803F00703AB422DD166
:10139000236813F0040F06D0164A936823F4E05331
:1013A000E1680B439360236813F0080F07D0114ADC
:1013B000936823F46043216943EAC1039360FFF714
:1013C00007FF0C4B9B68C3F303130B4AD35CD84055
:1013D0000A4B18600A4B1868FFF7B4FC002070BD78
:1013E000012070470120FAE70120F8E70120F6E725
:1013F000003C0240003802404C3E00080000002043
:1014000008000020014B1868704700BF0000002052
:1014100008B5FFF7F7FF044B9B68C3F38223034A29
:10142000D35CD84008BD00BF003802405C3E0008D5
:1014300008B5FFF7E7FF044B9B68C3F34233034A49
:10144000D35CD84008BD00BF003802405C3E0008B5
:101450000F2303600B4B9A6802F0030242609A6804
:1014600002F0F00282609A6802F4E052C2609B6867
:10147000DB0803F4E0530361034B1B6803F007032D
:101480000B60704700380240003C024000230F2BE5
:1014900000F2E48070B582B060E085685E000324ED
:1014A000B44025EA0405CC68B4402C438460456808
:1014B00025EA02054C68C4F300129A402A434260B0
:1014C0005AE0DC08083450F8246003F00702950065
:1014D0000F22AA4026EA020E0A69AA4042EA0E0238
:1014E00040F824205CE0072200E0002202FA0EF21D
:1014F0002A4302345A4D45F824205A4A14686FEAA8
:101500000C0224EA0C054E6816F4803F01D04CEA28
:101510000405544C2560646802EA04054E6816F41C
:10152000003F01D04CEA04054E4C6560A46802EA15
:1015300004054E6816F4801F01D04CEA0405494C9E
:10154000A560E46822404D6815F4001F01D04CEA04
:101550000402444CE26001330F2B7DD801229A40F3
:101560000C6804EA020C32EA0404F4D14C6804F07A
:101570000304013C012C90D94A6802F00302032ABB
:1015800009D0C4685D000322AA4024EA02048A68E4
:10159000AA402243C2604A6802F00302022A90D0A5
:1015A00004684FEA430E032202FA0EF224EA020410
:1015B0004A6802F0030202FA0EF2224302604A680D
:1015C00012F4403FC7D000220192274A546C44F4E1
:1015D00080445464526C02F480420192019A9C0847
:1015E000A51C1F4A52F8255003F003024FEA820E51
:1015F0000F2202FA0EF225EA02051C4A90423FF43D
:1016000074AF02F5806290421AD002F58062904277
:1016100018D002F58062904216D002F580629042A6
:1016200014D002F58062904212D002F5806290429E
:1016300010D002F5806290423FF455AF082255E782
:10164000012253E7022251E703224FE704224DE72C
:1016500005224BE7062249E702B070BD704700BF84
:1016600000380140003C01400038024000000240C8
:101670000AB181617047090481617047436901EAD9
:10168000030221EA030141EA02418161704700003F
:1016900010B40368D9B210390C4AA2FB01421209F6
:1016A0000B4CA25CC2655F2909D923F47F7323F038
:1016B000030304338365806D5DF8044B704723F4A6
:1016C0007F7323F003038365F5E700BFABAAAAAAE3
:1016D000643E0008836A826992B9012B0AD0022B0A
:1016E00002D00BB100207047C36A13F0807F28D16D
:1016F00000207047C36AB3F1C07F24D00020704738
:10170000B2F5005F09D0022B25D9032B25D1C36A7E
:1017100013F0807F23D100207047032B03D8DFE82C
:1017200003F01404140A00207047C36A13F0807F8A
:101730000DD100207047C36AB3F1C07F09D00020EB
:101740007047012070470120704701207047012039
:10175000704701207047012070470020704701202A
:101760007047000070B5044600F0CEF9002C5BD045
:101770000546022384F83530002384F8343022688B
:10178000136823F00103136023681A6812F0010F35
:101790000AD000F0B9F9431B052BF5D92023636566
:1017A000032084F8350070BD1A6820481040616835
:1017B000A2680A43E1680A4321690A4361690A434E
:1017C000A1690A43E1690A43216A0A430243616A43
:1017D00004291ED01A602668756925F00705636A1A
:1017E0001D43042B07D1A36A1D43E36A1BB12046A6
:1017F000FFF770FF90B975612046FFF749FFE26D72
:101800003F239340836000206065012384F83530D6
:10181000C9E7E16A206B01430A43DBE740236365C4
:10182000012084F83500BEE70120BCE73F8010F0BE
:10183000F0B583B0044600230193724B1D68724BD0
:10184000A3FB0535AD0A876D3E68C26D0823934042
:10185000334210D003681A6812F0040F0BD01A68D4
:1018600022F004021A60C26D08239340BB60436DEE
:1018700043F001034365E26D01239340334209D0F5
:101880002268526912F0800F04D0BB60636D43F090
:1018900002036365E26D04239340334209D022685A
:1018A000126812F0020F04D0BB60636D43F00403B2
:1018B0006365E26D10239340334224D0226812689E
:1018C00012F0080F1FD0BB6023681A6812F4802F33
:1018D0000DD01B6813F4002F04D1236C9BB120465C
:1018E000984710E0A36C73B1204698470BE01A6844
:1018F00012F4807F03D11A6822F008021A60236C68
:101900000BB120469847E26D20239340334255D0D7
:101910002268126812F0100F50D0BB6094F8353076
:10192000DBB2052B0ED023681A6812F4802F33D057
:101930001B6813F4002F2AD1636C002B3ED0204685
:1019400098473BE02268136823F01603136022686F
:10195000536923F080035361236CA3B12268136899
:1019600023F008031360E26D3F239340BB60012323
:1019700084F83530002384F83430236D002B3FD0B9
:10198000204698473CE0A36C002BE7D1EBE7E36BE4
:10199000A3B12046984711E01A6812F4807F09D15C
:1019A0001A6822F010021A60012384F835300023EF
:1019B00084F83430E36B0BB120469847636DFBB17C
:1019C000636D13F0010F17D0052384F835302268BA
:1019D000136823F001031360019B01330193AB42B1
:1019E00004D823681B6813F0010FF5D1012384F894
:1019F0003530002384F83430E36C0BB1204698472F
:101A000003B0F0BD00000020B5814E1B074AD3682B
:101A100023F4E0631B041B0C000200F4E0600343AA
:101A200043F0BF6343F40033D360704700ED00E040
:101A300000B5194BDB68C3F30223C3F1070CBCF1FB
:101A4000040F28BF4FF0040C03F1040EBEF1060F83
:101A500018D9033B4FF0FF3E0EFA0CFC21EA0C01B3
:101A600099400EFA03F322EA0303194300280BDB23
:101A70000901C9B200F1604000F5614080F800132F
:101A80005DF804FB0023E5E700F00F000901C9B28F
:101A9000024B1954F4E700BF00ED00E014ED00E044
:101AA000002807DB00F01F02400901239340024A8F
:101AB00042F82030704700BF00E100E008B50B4B52
:101AC0001A6842F400721A601A6842F480621A605E
:101AD0001A6842F480721A600320FFF797FF0F2004
:101AE000FFF730F9FEF766FF002008BD003C02401A
:101AF000034A1168034B1B780B441360704700BF07
:101B0000BC05002004000020014B1868704700BF8E
:101B1000BC05002030B4036A23F001030362036AAA
:101B20004268846924F073040D682C4323F0020C8E
:101B30008B6843EA0C03104DA84203D005F580657D
:101B4000A84205D123F00803CD682B4323F00403FA
:101B5000094DA84203D005F58065A84205D122F4BD
:101B600040724D692A438D692A43426084614A6804
:101B70004263036230BC70470000014030B4036A26
:101B800023F480730362036A4268C46924F0730C0F
:101B90000C6844EA0C0523F400738C6843EA0423C0
:101BA000114CA04203D004F58064A04206D123F476
:101BB0000063CC6843EA042323F480630A4CA04208
:101BC00003D004F58064A04207D122F440524C694E
:101BD00042EA04128C6942EA04124260C5614A6812
:101BE000C263036230BC70470000014030B4036A36
:101BF00023F480530362036A4468C26922F4E64214
:101C00000D6842EA052223F400538D6843EA053348
:101C1000094DA84203D005F58065A84204D124F4FB
:101C200080444D6944EA85144460C2614A68026494
:101C3000036230BC704700BF0000014010B4036A6B
:101C4000046A24F001040462846924F0F00C4CEA74
:101C5000021223F00A030B43826103625DF8044B16
:101C6000704710B4046A24F0100404628469036AA3
:101C700024F4704C4CEA023223F0A00343EA01132F
:101C8000826103625DF8044B7047836823F0700340
:101C90000B4343F0070383607047000090F83D302A
:101CA000DBB2012B37D1022380F83D300268D368C4
:101CB00043F00103D3600368194A934220D0B3F183
:101CC000804F1DD0A2F57C42934219D002F580626C
:101CD000934215D002F58062934211D002F578420A
:101CE00093420DD002F57052934209D0A2F594327E
:101CF000934205D01A6842F001021A600020704732
:101D00009A6802F00702062A07D01A6842F0010218
:101D10001A6000207047012070470020704700BF04
:101D2000000001407047704770477047704710B51A
:101D3000044603681A6912F0020F11D0DA6812F033
:101D4000020F0DD06FF002021A61012303770368BE
:101D50009B6913F0030F70D0FFF7E6FF0023237792
:101D600023681A6912F0040F12D0DA6812F0040F17
:101D70000ED06FF004021A610223237723689B6957
:101D800013F4407F5FD02046FFF7CEFF0023237778
:101D900023681A6912F0080F12D0DA6812F0080FDF
:101DA0000ED06FF008021A61042323772368DB69E1
:101DB00013F0030F4ED02046FFF7B6FF0023237722
:101DC00023681A6912F0100F12D0DA6812F0100F9F
:101DD0000ED06FF010021A61082323772368DB69A5
:101DE00013F4407F3DD02046FFF79EFF002323776A
:101DF00023681A6912F0010F03D0DA6812F0010F9C
:101E000036D123681A6912F0800F03D0DA6812F015
:101E1000800F34D123681A6912F0400F03D0DA68BA
:101E200012F0400F32D123681A6912F0200F03D04C
:101E3000DA6812F0200F30D110BDFFF774FF204692
:101E4000FFF773FF8AE72046FFF76DFF2046FFF795
:101E50006CFF9BE72046FFF766FF2046FFF765FF14
:101E6000ACE72046FFF75FFF2046FFF75EFFBDE7C8
:101E70006FF001021A612046FEF7D0FBC1E76FF058
:101E800080021A61204600F044FAC3E76FF0400276
:101E90001A612046FFF74AFFC5E76FF020021A617A
:101EA000204600F035FAC7E70368304A904212D066
:101EB000B0F1804F0FD0A2F57C4290420BD002F5DA
:101EC0008062904207D002F58062904203D002F512
:101ED0007842904203D123F070034A681343234AA7
:101EE00090422AD0B0F1804F27D0A2F57C42904298
:101EF00023D002F5806290421FD002F580629042AA
:101F00001BD002F57842904217D002F570529042F1
:101F100013D002F5806290420FD002F580629042A9
:101F20000BD0A2F59832904207D002F58062904221
:101F300003D002F58062904203D123F44073CA6853
:101F4000134323F080034A69134303608B68C36221
:101F50000B688362054B984203D003F58063984277
:101F600001D10B6903630123436170470000014005
:101F700040B310B5044690F83D30F3B1022384F825
:101F80003D30214651F8040BFFF78EFF012384F802
:101F9000463084F83E3084F83F3084F8403084F88E
:101FA000413084F8423084F8433084F8443084F877
:101FB000453084F83D30002010BD80F83C30FEF7FD
:101FC000D1FDDBE70120704740B310B5044690F81F
:101FD0003D30F3B1022384F83D30214651F8040B23
:101FE000FFF762FF012384F8463084F83E3084F81E
:101FF0003F3084F8403084F8413084F8423084F82F
:10200000433084F8443084F8453084F83D30002073
:1020100010BD80F83C30FFF785FEDBE701207047FC
:1020200030B4036A23F010030362036A44688269D0
:1020300022F4E6420D6842EA052223F020038D686F
:1020400043EA0513114DA84203D005F58065A84267
:1020500006D123F08003CD6843EA051323F0400343
:102060000A4DA84203D005F58065A84207D124F4A3
:1020700040644D6944EA85048D6944EA85044460FE
:1020800082614A688263036230BC7047000001408D
:1020900038B590F83C30012B66D004460D4601233C
:1020A00080F83C300C2A5AD8DFE802F00759595919
:1020B0001B5959593059595944000068FFF72AFDF6
:1020C0002268936943F0080393612268936923F0BF
:1020D000040393612268936929690B43936100208B
:1020E0003EE00068FFF79CFF2268936943F40063B9
:1020F00093612268936923F48063936122689369F2
:10210000296943EA01239361002029E00068FFF771
:1021100035FD2268D36943F00803D3612268D3698F
:1021200023F00403D3612268D36929690B43D36187
:10213000002015E00068FFF759FD2268D36943F4D9
:102140000063D3612268D36923F48063D36122687A
:10215000D369296943EA0123D361002000E001200B
:10216000002384F83C3038BD0220FCE710B48468BA
:1021700024F47F4C42EA03220A4342EA0C028260C2
:102180005DF8044B704790F83C30012B78D010B5C7
:102190000446012380F83C30022380F83D30026879
:1021A000936823F47F4323F0770393600B68602BDD
:1021B0004CD029D8402B54D00CD9502B22D1CA68EE
:1021C00049680068FFF73AFD50212068FFF75DFD80
:1021D000002005E0202B0DD009D9302B0AD001209A
:1021E000012384F83D30002384F83C3010BD0BB14E
:1021F000102B05D119462068FFF747FD0020EFE7B7
:102200000120EDE70120EBE7B3F5805F34D0B3F5B3
:10221000005F0CD1CB684A6889680068FFF7A6FFA9
:102220002268936843F4804393600020D8E7702BC2
:1022300024D1CB684A6889680068FFF797FF226855
:10224000936843F0770393600020C9E7CA68496840
:102250000068FFF706FD60212068FFF716FD0020EB
:10226000BEE7CA6849680068FFF7E8FC40212068BB
:10227000FFF70BFD0020B3E70020B1E70120AFE737
:102280000220704790F83C30012B3DD010B4012360
:1022900080F83C30022380F83D3003685A689C681F
:1022A00022F0700C0A6842EA0C025A600368174A6E
:1022B00093421AD0B3F1804F17D0A2F57C429342DB
:1022C00013D002F5806293420FD002F580629342F0
:1022D0000BD002F57842934207D002F57052934238
:1022E00003D0A2F59432934204D124F080044A68CA
:1022F00014439C60012380F83D30002380F83C307B
:1023000018465DF8044B70470220704700000140FA
:102310007047704738B504460268136923F4405388
:10232000C1680B4313618368026913434269134315
:10233000C2691A430168CB6823F4164323F00C03E7
:102340001343CB600268536923F4407381690B43E4
:1023500053610368314A934206D002F5806293428A
:1023600002D0FFF755F801E0FFF762F8E369B3F533
:10237000004F29D00021031849411B1841F10001E9
:10238000C90041EA5371DB00181863684FEA830201
:102390004FEA937341F10001FDF71AFF204DA5FBB1
:1023A00000325109642303FB11031B013233A5FBE7
:1023B00003235B0903F0F00202EB011203F00F03A9
:1023C000216813448B6038BD0023021843EB0301DE
:1023D000121841F10001C90041EA5271D2001018EF
:1023E00041F10001626892185B41FDF7F1FE0C4D6E
:1023F000A5FB00325109642303FB1103DB003233D8
:10240000A5FB03235B095A0002F4F87202EB0112E8
:1024100003F00703216813448B60D4E700100140E8
:102420001F85EB5158B310B5044690F83D300BB3FF
:10243000242384F83D302268D36823F40053D3600A
:102440002046FFF767FF2268136923F49043136166
:102450002268536923F02A0353612268D36843F446
:102460000053D36000202064202384F83D3084F89A
:102470003E3010BD80F83C30FEF7B8FBD8E70120B5
:10248000704700F1080343604FF0FF328260C36081
:1024900003610023036070470023036170474368B2
:1024A0004B609A688A6051609960086103680133E3
:1024B0000360704730B40D68B5F1FF3F11D000F1F3
:1024C00008031C465B681A68AA42FAD963684B6025
:1024D00099608C606160086103680133036030BCFF
:1024E00070470469F2E70369416882688A6041685D
:1024F00051605A68824206D0002202611A68013A8D
:102500001A601868704782685A60F5E7084B1B68C4
:102510001B6823B9074B4FF0FF321A607047044B1A
:102520001B68DB68DB685A68024B1A60704700BFA3
:10253000C4050020980600202DE9F047074698467C
:10254000089DDDF824900A9C266B02F18042013A36
:1025500006EB820626F0070600293AD08E464FF099
:10256000000CBCF10F0F0BD81EF80C2004EB0C0371
:1025700083F834201EF80C3013B10CF1010CF0E795
:10258000002384F84330062D00D90625E5626564F2
:102590004FF0000AC4F848A0201DFFF77DFF04F1AA
:1025A0001800FFF779FF2461C5F10705A561646292
:1025B000C4F84CA084F850A042463946304600F09A
:1025C000F3FC2060B9F1000F01D0C9F80040BDE86C
:1025D000F087002384F83430D5E7000038B50024B4
:1025E00007E004EB840293000E481844FFF749FF0C
:1025F0000134062CF5D90C4D2846FFF742FF0B4C51
:102600002046FFF73EFF0A48FFF73BFF0948FFF768
:1026100038FF0948FFF735FF084B1D60084B1C6069
:1026200038BD00BFCC0500206C06002080060020CD
:10263000A4060020D0060020BC060020C40500200F
:10264000C805002010B5044600F0DCFC214A1368E0
:1026500001331360204B1B685BB1204B1B686BB9C7
:102660001D4B1B68DA6AE36A9A4207D81A4B1C6052
:1026700004E0194B1C601368012B28D0184A13681A
:1026800001331360E06A01238340164A11680B434B
:10269000136000EB8000211D134B03EB8000FFF75C
:1026A000FEFE00F0D1FC0D4B1B687BB10A4B1B6892
:1026B000DA6AE36A9A4209D24FF0E0234FF080527F
:1026C000C3F8042DBFF34F8FBFF36F8F10BDFFF71B
:1026D00085FFD3E758060020C0050020B80600207B
:1026E0006406002068060020CC05002010B50446D2
:1026F00090F8513063B1012B11D0022B0ED04FF066
:10270000500383F31188BFF36F8FBFF34F8FFEE742
:10271000006B00F0CDFB204600F0CAFB10BD00F0BE
:10272000C7FBFBE70F4B1B68D3B110B500F06AFC89
:102730000D4BDB68DC68201DFFF7D5FE0B4A1368E4
:10274000013B1360074A1368013B136000F07CFCF7
:102750002046FFF7CBFF034B1B68002BE6D110BDD3
:10276000704700BF5C060020D006002058060020FD
:1027700008B5FFF7D7FF074B1B68012BF9D94FF0BE
:10278000E0234FF08052C3F8042DBFF34F8FBFF307
:102790006F8FEEE7CC05002070B504460D461D4B4B
:1027A0001E681D4B18680430FFF79DFE50B91A4B88
:1027B0001B68DA6A012303FA02F218490B6823EA5C
:1027C00002030B60B4F1FF3F0DD03444124B1B6881
:1027D0005C60A64210D9124B18680F4B196804317F
:1027E000FFF768FE70BD002DEFD00B4B1968043168
:1027F0000C48FFF754FEF5E70B4B1868064B1968B9
:102800000431FFF757FE094B1B68A342EAD9074B77
:102810001C60E7E7E4060020C005002068060020F1
:10282000C8050020BC060020C40500209806002032
:1028300030B587B00B9C7CB10C9DB5B15425049587
:10284000049D542D1AD04FF0500383F31188BFF329
:102850006F8FBFF34F8FFEE74FF0500383F3118864
:10286000BFF36F8FBFF34F8FFEE74FF0500383F33B
:102870001188BFF36F8FBFF34F8FFEE7049D0C9D50
:102880002C63022485F8514000240394029505AC82
:1028900001940A9C0094FFF74FFE0C98FFF7D2FEBC
:1028A000059807B030BD2DE9F04385B0074688464E
:1028B00014461E46900000F07DFA00B38146542075
:1028C00000F078FA0546B0B1C0F83090E5B10023C9
:1028D00085F85130039302950D9B01930C9B009357
:1028E0003346224641463846FFF726FE2846FFF784
:1028F000A9FE012005E0484600F0DAFAE6E74FF0CD
:10290000FF3005B0BDE8F0834FF0FF30F9E700007D
:1029100010B588B000240594069407AA06A905A856
:10292000FEF74EFA059B0293069B01930094234603
:10293000079A0E490E48FFF77BFF0E4B186090B1C7
:102940004FF0500383F31188BFF36F8FBFF34F8FA6
:10295000094B4FF0FF321A60084B01221A60084BF6
:102960001C6000F0E9FB08B010BD00BF6C3E000821
:10297000712700089406002098060020B806002061
:10298000E4060020024A136801331360704700BF59
:1029900060060020014B1868704700BFE406002065
:1029A000F8B53A4B1B68002B69D1394B1D680135CE
:1029B0001D60C5B9374B1B681B6843B14FF050030E
:1029C00083F31188BFF36F8FBFF34F8FFEE7314A58
:1029D0001168314B186810601960304A1368013370
:1029E0001360FFF793FD2E4B1B68AB423DD90027C8
:1029F0002C4B1B68DB6A03EB83039A002A4B9B5822
:102A0000012B00D90127294B1B68002B3CD0012743
:102A10003AE001271F4B1B681B6843B31D4B1B6823
:102A2000DB68DC6863689D4226D3261D3046FFF7CD
:102A30005AFDA36A1BB104F11800FFF754FDE36AC5
:102A400001229A401A49086802430A6003EB830393
:102A50009A00314614481044FFF721FDE26A114BF9
:102A60001B68DB6A9A42D4D2D4E70027D2E70C4B2A
:102A70004FF0FF321A60BBE7094A1360B8E70D4A0E
:102A800013680133136000273846F8BD6006002044
:102A9000E4060020C4050020C80500209C06002094
:102AA00098060020C0050020CC050020E806002084
:102AB00068060020A006002038B5354B1B6843B9D6
:102AC0004FF0500383F31188BFF36F8FBFF34F8F25
:102AD000FEE700F097FA2E4B1A68013A1A601B685D
:102AE000002B4FD12B4B1B680BB900244BE000246B
:102AF000294B1B681BB3284BDB68DC6804F118000A
:102B0000FFF7F1FC251D2846FFF7EDFCE06A0123E5
:102B10008340224A11680B43136000EB8000294672
:102B20001F4B03EB8000FFF7BAFCE26A1D4B1B68EA
:102B3000DB6A9A42DCD31C4B01221A60D8E70CB145
:102B4000FFF7E4FC194B1C6884B9174B1C68D4B11F
:102B50004FF0E0234FF08052C3F8042DBFF34F8FA6
:102B6000BFF36F8F01240EE0013C07D0FFF718FF81
:102B70000028F9D00C4B01221A60F5E70B4B00221C
:102B80001A60E2E7002400F05FFA204638BD00BF7B
:102B90006006002058060020A406002068060020D9
:102BA000CC050020C0050020E8060020A00600207B
:102BB00038B558B10C46054689B94FF0500383F338
:102BC0001188BFF36F8FBFF34F8FFEE74FF05003B5
:102BD00083F31188BFF36F8FBFF34F8FFEE71B4B5B
:102BE0001B6843B14FF0500383F31188BFF36F8F1D
:102BF000BFF34F8FFEE7FFF7C5FE154B18682B6834
:102C00001C44834209D9A34201D82C600EE0A042A3
:102C100001D32C600AE02C6004E0A34201D8A0425A
:102C200012D22C600021201AFFF7B6FDFFF744FFF7
:102C300048B94FF0E0234FF08052C3F8042DBFF3A2
:102C40004F8FBFF36F8F38BD2C60EFE76006002019
:102C5000E4060020204B1B681BB1204B01221A60A8
:102C600070471E4B00221A601D4B1B68B3FA83F39A
:102C7000DBB2C3F11F0303EB83018A0019498A58B1
:102C800042B94FF0500383F31188BFF36F8FBFF346
:102C90004F8FFEE7134903EB830082000A4450681C
:102CA0004068506003EB830C4FEA8C0208321144F9
:102CB000884209D003EB83039A000A4B13445B68F4
:102CC000DA68094B1A607047406862469100054A0D
:102CD0000A445060EEE700BF60060020E8060020CE
:102CE00068060020CC050020C0050020124A12F022
:102CF000070F1ED0D11D21F00701C1F570531344F9
:102D00000A460E480260002141601344083B23F04C
:102D100007030B48036059601960991A51601360EA
:102D2000084B1960084B1960084B4FF000421A60BD
:102D300070474FF47053E4E7F0060020044300208E
:102D4000EC060020F8420020F4420020F04200206F
:102D5000164B1A461B688342FBD3516802EB010CE9
:102D6000844509D0416800EB010C634509D003603C
:102D7000904219D01060704740680144516010467D
:102D8000F0E710B40A4C2468A3420BD05B681944E6
:102D9000416013681B680360904200D010605DF8CA
:102DA000044B70470460F7E7704700BF04430020FE
:102DB000EC06002070B50546FFF7E4FD364B1B68B6
:102DC000A3B1364B1B681D424ED135B1083515F005
:102DD000070F02D025F007050835002D46D0304BEF
:102DE0001B68AB4251D32F4A146804E0FFF77EFF03
:102DF000E7E722461C466368AB4202D22368002BF9
:102E0000F7D1254B1B68A34241D0166808362368CA
:102E1000136063685B1B102B10D9601910F0070F4B
:102E200008D04FF0500383F31188BFF36F8FBFF3C7
:102E30004F8FFEE743606560FFF78AFF62681849BD
:102E40000B689B1A0B60184909688B4201D216491E
:102E50000B60124B1B681343636000232360134A0B
:102E600013680133136002E0002600E00026FFF73C
:102E700023FE16F0070F0CD04FF0500383F3118898
:102E8000BFF36F8FBFF34F8FFEE70026EFE70026FB
:102E9000EDE7304670BD00BFEC060020F042002098
:102EA000F442002004430020F8420020FC420020AD
:102EB000002834D038B50446A0F1080550F8043C89
:102EC000174A1268134208D14FF0500383F3118858
:102ED000BFF36F8FBFF34F8FFEE750F8081C41B16F
:102EE0004FF0500383F31188BFF36F8FBFF34F8F01
:102EF000FEE723EA020340F8043CFFF743FD54F8E1
:102F0000041C084A13680B4413602846FFF720FF8F
:102F1000054A136801331360FFF7CEFD38BD7047D3
:102F2000F0420020F44200200043002082B0002341
:102F300001930D4B1B68B3F1FF3F08D04FF05003D6
:102F400083F31188BFF36F8FBFF34F8FFEE74FF00E
:102F5000500383F31188BFF36F8FBFF34F8F019B33
:102F6000002BFCD002B070470C000020084800681D
:102F7000006880F308884FF0000080F3148862B680
:102F800061B6BFF34F8FBFF36F8F00DF00BF00004C
:102F900008ED00E0DFF80C00016841F47001016009
:102FA0007047000088ED00E04FF0807340F8043C6B
:102FB00021F0010140F8081C054B40F80C3C40F89A
:102FC000202C6FF0020340F8243C4438704700BFC7
:102FD0002D2F00080000000000000000000000008D
:102FE000074B19680868B0E8F04F80F30988BFF311
:102FF0006F8F4FF0000080F311887047AFF30080AF
:10300000C00500204FF0500383F31188BFF36F8F8A
:10301000BFF34F8F0B4A136801331360012B00D0AD
:1030200070474FF0E023D3F8043D13F0FF0FF7D0C3
:103030004FF0500383F31188BFF36F8FBFF34F8FAF
:10304000FEE700BF0C000020094B1B6843B94FF09E
:10305000500383F31188BFF36F8FBFF34F8FFEE7E9
:10306000013B034A13600BB983F31188704700BF1B
:103070000C00002000000000000000000000000024
:10308000EFF30980BFF36F8F154B1A681EF0100F16
:1030900008BF20ED108A20E9F04F10602DE90900EB
:1030A0004FF0500080F31188BFF34F8FBFF36F8F45
:1030B000FFF7D0FD4FF0000080F3118809BC1968BC
:1030C0000868B0E8F04F1EF0100F08BFB0EC108A8F
:1030D00080F30988BFF36F8F704700BFAFF30080A4
:1030E000C005002008B54FF0500383F31188BFF3EB
:1030F0006F8FBFF34F8FFFF753FC28B14FF0E023E2
:103100004FF08052C3F8042D002383F3118808BDCB
:103110004FF0E022002313619361054B1B680549C2
:10312000A1FB03139B09013B536107231361704704
:1031300000000020D34D62104FF0E023D3F8002DA3
:103140003D4B9A421CD04FF0E023D3F8002D3B4B6F
:103150009A421ED030B583B0394B1A78D2B2019260
:10316000FF221A701B78DBB28DF803309DF8033014
:1031700003F05003334A1370334B07221A601BE0ED
:103180004FF0500383F31188BFF36F8FBFF34F8F5E
:10319000FEE74FF0500383F31188BFF36F8FBFF347
:1031A0004F8FFEE7284A1368013B13609DF80330F8
:1031B0005B00DBB28DF803309DF8033013F0800F15
:1031C000F0D1214B1B68032B08D04FF0500383F341
:1031D0001188BFF36F8FBFF34F8FFEE71B021A4AB0
:1031E000136003F4E0631360019BDBB2144A1370B5
:1031F0004FF0E024D4F8203D43F47003C4F8203DA0
:10320000D4F8203D43F07043C4F8203DFFF780FF21
:1032100000250E4B1D60FFF7BDFED4F8343F43F090
:103220004043C4F8343FFFF7A1FEFFF713FDFFF75B
:103230007DFE284603B030BD71C20F4170C20F4100
:1032400000E400E00C430020104300200C000020AC
:103250004A4B5A6822F440325A605A6841680A431D
:103260005A600268536823F480735360026853689D
:10327000016943EA012353600268536823F04073F5
:1032800053600268536881680B4353600268936817
:1032900023F40063936002689368C1680B439360F2
:1032A000826A374B9A4257D00268936823F0706362
:1032B000936002689368816A0B4393600268936825
:1032C00023F04053936002689368C16A0B43936094
:1032D0000268936823F00203936002689368017E9A
:1032E00043EA4103936090F82030002B3FD00268FE
:1032F000536843F4006353600268536823F46043E7
:10330000536001684B68426A013A43EA42334B60BA
:103310000268D36A23F47003D3620168CB6AC2697E
:10332000013A43EA0253CB620268936823F40073C4
:1033300093600268936890F8301043EA41239360E9
:103340000268936823F4806393600268936841691C
:1033500043EA8123936070470268936823F07063A7
:1033600093600268936823F040539360B0E702686B
:10337000536823F400635360CAE700BF0023014091
:103380000100000F38B310B50446036C43B1236C41
:1033900013F0100F0BD00120002384F83C3010BD37
:1033A000FDF72AFB0023636484F83C30EFE7236CCD
:1033B00023F4885323F0020343F0020323642046DE
:1033C000FFF746FF00206064236C23F0030343F003
:1033D00001032364E0E701207047000030B482B0AD
:1033E0000023019390F83C30012B00F0BB800123B7
:1033F00080F83C300B68092B41D90468E2689BB225
:1034000003EB43031E3B4FF0070C0CFA03F322EAD5
:103410000303E3600468E2680B8803EB43031E3B8D
:103420008D6805FA03F31343E3604B68062B3DD820
:103430000468626B03EB8303053B4FF01F0C0CFA2F
:1034400003F322EA030363630468626B4B6803EBD4
:103450008303053BB1F800C00CFA03F31343636325
:103460000268414B9A4251D002683F4B9A4256D073
:10347000002380F83C30184602B030BC7047046826
:1034800022699BB203EB43034FF0070C0CFA03F3E2
:1034900022EA03032361046822690B8803EB4303D8
:1034A0008D6805FA03F313432361BEE70C2B16D88E
:1034B00005682A6B03EB8303233B1F2404FA03F301
:1034C00022EA03032B6305682A6B4B6803EB830333
:1034D000233B0C8804FA03F313432B63C0E705680E
:1034E000EA6A03EB8303413B1F2404FA03F322EA55
:1034F0000303EB620568EA6A4B6803EB8303413B15
:103500000C8804FA03F31343EB62A9E70B68122B50
:10351000AAD1164A536843F480035360A4E70B68AA
:10352000103B012BA4D8114A536843F400035360A5
:103530000B68102B9CD10E4B1B6802F1467202F5F2
:103540002E3202F28332A2FB03239B0C03EB830394
:103550005B00019302E0019B013B0193019B002B67
:10356000F9D185E7022087E70020014000230140D0
:103570000000002003685A6912F4806F01D1002016
:1035800070476FF480625A6100230363202280F841
:103590003D2080F83E30026C42F00402026480F864
:1035A0003C30012070472DE9F04107460D4690461A
:1035B0001E4624E0FEF7A8FA069BC01AB04200D8C7
:1035C000EEB900233B63202287F83D2087F83E3088
:1035D0003A6C42F020023A6487F83C3001201EE049
:1035E0003B689C6925EA040C1FFA8CFCBCFA8CFC35
:1035F0004FEA5C1CE04511D1B6F1FF3FDAD1C5F3CB
:103600000743012BECD13B685B6925EA030C1FFAE9
:103610008CFCBCFA8CFC4FEA5C1CEBE70020BDE89C
:10362000F0812DE9F04105460E46174698463DE0EB
:103630001A6842F400721A602B686FF480625A6153
:1036400000232B63202285F83D2085F83E302A6C2C
:1036500042F004022A6485F83C30012034E0FEF791
:1036600053FAA0EB0800B84200D8FFB900232B633F
:10367000202285F83D2085F83E302A6C42F0200259
:103680002A6485F83C3001201EE02B689C6926EAFC
:103690000404A4B2003C18BF0124A4B12B685A69E9
:1036A00012F4806FC4D1B7F1FF3FD8D1C6F30743FE
:1036B000012BEAD12B685C6926EA0404A4B2003C21
:1036C00018BF0124E9E70020BDE8F08170B5044689
:1036D0000D46164623685B6913F0800F1CD1204607
:1036E000FFF748FFD0B9B5F1FF3FF3D0FEF70CFA72
:1036F000801BA84201D8002DECD100232363202297
:1037000084F83D2084F83E30226C42F0200222648E
:1037100084F83C30012000E0002070BD0120FCE76F
:103720002DE9F04784B004460D46164699460C9F95
:10373000DDF834800268136843F480631360036823
:10374000196841F480711960CDF800803B46002271
:103750004FF00111FFF727FF70B95FFA85FA236870
:1037600005F0FE051D6143463A4641492046FFF7F4
:1037700058FF68B1012008E023681B6813F4807FBC
:1037800002D04FF400732364032004B0BDE8F08737
:103790000023039323685A6903929B690393039B55
:1037A000424639462046FFF791FF80B9B9F1010F33
:1037B00018D12368F6B21E61424639462046FFF70B
:1037C00085FF68B3236C042B24D00120DDE7236C34
:1037D000042B01D00120D8E72268136843F400735A
:1037E0001360F7E72368320A1A61424639462046D9
:1037F000FFF76CFF18B92368F6B21E61DCE7236C93
:10380000042B01D00120C0E72268136843F4007341
:103810001360F7E72268136843F400731360D4E77A
:103820002268136843F480731360CDF800803B4630
:1038300000224FF001112046FFF7B5FE68B922685B
:103840004AF00103136143463A4609492046FFF70F
:10385000E8FE002899D0012097E723681B6813F43D
:10386000807F02D04FF40073236403208DE700BFF4
:103870000200010070B505460C4616462B685969D2
:1038800011F0400F29D1596911F0100F15D1FEF731
:103890003BF9801BA04201D8002CEFD100232B6301
:1038A000202285F83D2085F83E302A6C42F0200227
:1038B0002A6485F83C30012070BD6FF010025A6117
:1038C00000232B63202285F83D2085F83E302A6CAA
:1038D0002A6485F83C300120EEE70020ECE7000088
:1038E000002800F0CC8070B5044690F83D30002BE5
:1038F00077D0242384F83D302268136823F0010335
:1039000013602268136843F400431360226813684D
:1039100023F400431360FDF77BFD62685A4B9A4223
:1039200064D85A4B98428CBF00230123002B40F0EF
:10393000A8805749A1FB00318B0C25686A6822F0EA
:103940003F0242EA91426A6021680A6A22F03F021D
:1039500066684D4DAE424FD8013313430B62216868
:10396000CA6922F44F4222F0FF026668464B9E422B
:103970004CD8431E7600B3FBF6F3013340F6FC70DF
:10398000034278D0C3F30B031343CB6121680B6868
:1039900023F0C003E269206A024313430B602168ED
:1039A0008B6823F4034323F0FF032269E06802439A
:1039B00013438B602168CB6823F0FF036269A06921
:1039C00002431343CB602268136843F00103136082
:1039D00000202064202384F83D30206384F83E00DA
:1039E00070BD80F83C30FDF75DF882E7294B9842C6
:1039F0008CBF0023012399E74FF4967505FB03F371
:103A0000254DA5FB03539B090133A6E7A368BBB96A
:103A1000451E06EB460CB5FBFCF50135C5F30B0561
:103A2000B5FA85F56D0945BBC3B9013806EB460308
:103A3000B0FBF3F30133C3F30B0343F40043A3E7F9
:103A4000451E06EB860C0CEB8C0CB5FBFCF501352A
:103A5000C5F30B05B5FA85F56D09E4E7013806EB0A
:103A6000860303EB8303B0FBF3F30133C3F30B03D0
:103A700043F4404388E7042386E7012384E70120D9
:103A800070470120ACE700BFA08601007F841E00C4
:103A900083DE1B43FF083D00D34D62102DE9F04348
:103AA00087B004460F4690469946109EFEF72CF8C4
:103AB000054694F83D00C0B2202804D002273846BD
:103AC00007B0BDE8F08300951923012288492046FC
:103AD000FFF769FD002840F0438194F83C30012B4A
:103AE00000F04081012384F83C3023681A6812F00A
:103AF000010F03D11A6842F001021A6022681368AC
:103B000023F400631360222384F83D30402384F8BB
:103B10003E30002323640E9B6362BDF83C30638516
:103B2000638D2385734BE362019500964B464246B5
:103B300039462046FFF7F4FD0746002840F014817F
:103B4000238D5BB9029323685A6902929A690292A3
:103B5000029A1A6842F400721A6075E0012B0AD0CA
:103B6000022B1AD00023059323685A6905929B699A
:103B70000593059B68E02268136823F48063136053
:103B80000023039323685A6903929A690392039A64
:103B90001A6842F400721A6056E02268136823F42F
:103BA000806313602268136843F40063136000238A
:103BB000049323685A6904929B690493049B43E02D
:103BC0002A4631462046FFF755FE002840F0CE80B9
:103BD00023681A69636A1A70636A01336362238D0A
:103BE000013B2385638D9BB2013B9BB263852BE038
:103BF00000953346002240492046FFF7D4FC0028B8
:103C000040F0B6802268136843F4007313602368A1
:103C10001A69636A1A70626A531C6362238D013BDE
:103C20002385638D9BB2013B9BB2638523681B692F
:103C30005370636A01336362238D013B2385638D77
:103C40009BB2013B9BB26385238D002B7FD0032B5E
:103C500054D8012BB4D0022BCAD000953346002291
:103C600025492046FFF79FFC002840F0838022680A
:103C7000136823F48063136023681A69636A1A70F7
:103C8000636A01336362238D013B2385638D9BB29D
:103C9000013B9BB2638500953346002216492046BE
:103CA000FFF781FC002867D12268136843F4007392
:103CB000136023681A69636A1A70626A531C63622C
:103CC000238D013B2385638D9BB2013B9BB26385B2
:103CD00023681B695370636A01336362238D013B60
:103CE0002385638D9BB2013B9BB26385ACE700BF2C
:103CF000020010000000FFFF040001002A463146C8
:103D00002046FFF7B7FD002838D123681A69636A97
:103D10001A70626A531C6362238D013B2385638D95
:103D20009BB2013B9BB263852368596911F0040F74
:103D30008AD01B695370636A01336362238D013B30
:103D40002385638D9BB2013B9BB263857CE7202377
:103D500084F83D30002384F83E3084F83C30AEE6F1
:103D60000227ACE60227AAE60127A8E60127A6E675
:103D70000127A4E60127A2E60127A0E601279EE687
:103D8000DFF834D00D480E490E4A002302E0D45823
:103D9000C4500433C4188C42F9D30B4A0B4C002393
:103DA00001E013600432A242FBD3FCF7C1FF00F034
:103DB00011F8FCF7BDFD7047000002200000002054
:103DC00010000020843E0008100000201443002052
:103DD000FEE7000070B50D4D0D4C641BA4100026CD
:103DE000A64209D10B4D0C4C00F020F8641BA41026
:103DF0000026A64205D170BD55F8043B9847013610
:103E0000EEE755F8043B98470136F2E77C3E0008A0
:103E10007C3E00087C3E0008803E000802440346C9
:103E2000934200D1704703F8011BF9E7F8B500BFD2
:103E3000F8BC08BC9E467047F8B500BFF8BC08BC8B
:043E40009E467047E3
:103E440044656661756C74000000000000000000A9
:103E5400010203040607080900000000010203042C
:103E6400000610160006101649444C4500000000D8
:083E74008CC3FF7F0100000078
:043E7C00B501000884
:043E800091010008A4
:103E84000024F4000100000010000000AAAAAAAA5D
:0400000508003D8131
:00000001FF
